:03000000020EA647
:0C0EA600787FE4F6D8FD75816B020EED3C
:100E1400012204012700016000012B0001210002CE
:100E2400370000016B000431000000000452000090
:100E34000000043A00000000045A00000000042DE1
:100E440000000000015000012C00012600012A00CE
:100E540001240001360001280001390E01492D0149
:100E64003E0B012300012900012500014A00015124
:100E740000014F0002560000025E00050258000007
:100E8400044B000000000135000A3FC0F9A4B099EA
:100E94009282F880900A6140792430191202780015
:010EA400103D
:100D6300EFB407004003020E13900D73F8282873A5
:100D7300020D88020D92020D9C020DAF020DB90205
:100D83000E02020E0A85233985294985253E2285CF
:100D9300234A85295185254F22755600852357758A
:100DA3005E0085295F75580085255922853923857D
:100DB3004929853E2522E52BB408005053900DC7E1
:100DC300F8282873020DDF020DE6020DE9020DEB90
:100DD300020DEE020DF5020DF8020DFF740A252532
:100DE300F525220525228003052922740A2529F5E4
:100DF3002922052922740A2523F52322052322E427
:100E0300F525F529F52322855925855F298557235E
:010E130022BC
:03000B0002067F6B
:10067F00C0E0C0F0C083C082C0D075D000C000C041
:10068F0001C002C003C004C005C006C007E4FAF9E8
:10069F00F8E5342401F534EA3533F533E93532F52D
:1006AF0032E83531F531E5552401F555EA3554F584
:1006BF0054E93553F553E83552F552E55D2401F50C
:1006CF005DEA355CF55CE9355BF55BE8355AF55A63
:1006DF00E47FE87E03FDFCAB34AA33A932A831C313
:1006EF00120217400E05397534007533007532004C
:1006FF00753100E539643C70040549F539E5496405
:10070F003C7004053EF549E53E64187002F53EE580
:10071F0035640160030207B7FAF9F8E54E2401F5D5
:10072F004EEA354DF54DE9354CF54CE8354BF54B6B
:10073F00E47FE87E03FDFCAB4EAA4DA94CA84BC34A
:10074F001202174014E557155770021556754E00D3
:10075F00754D00754C00754B00C3E5566480948051
:10076F00500EE55F155F7002155E75560075573BAD
:10077F00C3E55E64809480500EE5591559700215DB
:10078F0058755E00755F3BC3E558648094805018C0
:10079F00753500755800755900755E00755F0075E9
:1007AF005600755700752202D3E523943B7480944D
:1007BF008040057523000529D3E529943B74809467
:1007CF008040057529000525E5216402700DD3E5EC
:1007DF00259463748094804010800BD3E525941783
:1007EF00748094804003752500E539B54A0DE549BD
:1007FF00B55108E53EB54F03752201E5246401703C
:10080F00267F847E03FDFCAB34AA33A932A831C303
:10081F001202174012052AE52A945A7480948040D8
:10082F0006752400752A00E47BFAFAF9F8AF34AEA6
:10083F0033AD32AC311210FDAC00AD01AE02AF03DF
:10084F00EC4D4E4F70100528D3E528940474809416
:10085F00804003752800D3E5219404748094804070
:10086F0003752100E47FFBFEFDFCAB55AA54A95391
:10087F00A852C31202177008F555F554F553F552E7
:10088F00120370E52264017011C3E52694C87480C9
:10089F0094804006752204752600E52264027011CB
:1008AF00C3E52C94C8748094804006752204752C7F
:1008BF0000E5216403700EC3E536940174809480C3
:1008CF004003121141D3E550940374809480400685
:1008DF00755000752204D007D006D005D004D00380
:1008EF00D002D001D000D0D0D082D083D0F0D0E0D1
:0108FF0032C6
:1012F600438E805389F0758A20758CD1C28DD28C2D
:0113060022C4
:10130700E5607003020900E56064017003120ABC1E
:0113170022B3
:081322007F0C7EA9DEFEDFFC5A
:01132A0022A0
:0212C400AD0774
:1012C600E4FBFAEDFFD3EB9F7480F86A98500A129C
:0912D60013220BBB00010A80EA9F
:0112DF0022EC
:100F3200E54F75F00A84243FF8E6FD7F01120F6148
:100F4200E54F75F00A84746125F0F8E6FD7F021220
:0F0F52000F61E55175F00A84243FF8E6FD7F0337
:100F6100EF14602314601A14600D147022D280D221
:100F710081D282C2838018D280D281C282D2838000
:100F81000ED280C2818004C280D281D282D2838D6E
:0A0F9100A07F011212C475A0FF2218
:10105E00E52114601A14602414602F14603A2404DD
:10106E007043E53670217F02120C5A05368018E562
:10107E003670077F03120C5A0536800BE536700763
:10108E007F04120C5A0536021307E53670077F05EA
:10109E00120C5A0536021219E5367006FF120C5A5A
:0610AE000536120F9B2223
:10090000E5211470030209B91470030209C9240215
:100910006003020ABBE527704CE53E75F00A8424AB
:100920003FF8E6FD7F01120F61C3E5289402748051
:100930009480500AE53E75F00A8474618013C3E523
:10094000289402748094804012E53E75F00A847405
:100950003F25F0F8E6FD7F02120F61E549120F56C0
:10096000E5490209BEE52764016003020ABBE549C7
:1009700075F00A84243FF8E6FD7F01120F61C3E59C
:1009800028940274809480500AE54975F00A8474B2
:10099000618013C3E5289402748094804012E54975
:1009A00075F00A84743F25F0F8E6FD7F02120F61AE
:1009B000E539120F56E5398005120F32E55175F011
:1009C0000A84743F25F0020AB3E5277071AE58AF70
:1009D00059FC7D0A1201D3743F2FF8E6FD7F011206
:1009E0000F61C3E528940274809480500FAE58AF15
:1009F000597C007D0A1201D374618018C3E52894E4
:100A000002748094804016AE58AF597C007D0A1263
:100A100001D3743F2DF8E6FD7F02120F61AE5EAF89
:100A20005F7C007D0A1201D3743F2F120F5CAE5E13
:100A3000AF5F7C007D0A1201D3743F2D8075E527DE
:100A400064017077AE5EAF5FFC7D0A1201D3743F24
:100A50002FF8E6FD7F01120F61C3E5289402748030
:100A60009480500FAE5EAF5F7C007D0A1201D3749C
:100A7000618018C3E5289402748094804016AE5EAD
:100A8000AF5F7C007D0A1201D3743F2DF8E6FD7F35
:100A900002120F61AE56AF577C007D0A1201D3746B
:100AA0003F2F120F5CAE56AF577C007D0A1201D368
:0C0AB000743F2DF8E6FD7F04120F612258
:100ABC00E5276003020B82E52B701CC3E52894022A
:100ACC00748094805002800FC3E528940274809443
:100ADC008040147DFF800BE52575F00A84243FF8D7
:100AEC00E6FD7F01120F61E52B6401701CC3E52844
:100AFC009402748094805002800FC3E52894027491
:100B0C0080948040167D7F800DE52575F00A8474F5
:100B1C006125F0F8E6FD7F02120F61E52B6402708F
:100B2C001CC3E5289402748094805002800FC3E5A6
:100B3C002894027480948040147DFF800BE5297505
:100B4C00F00A84243FF8E6FD7F03120F61E52B6465
:100B5C0003701EC3E52894027480948050028011A7
:100B6C00C3E5289402748094805003020C59020C43
:100B7C0043E529020C49E52764016003020C59E5A1
:100B8C002B6404701CC3E52894027480948050027A
:100B9C00800FC3E52894027480948040147DFF80FC
:100BAC000BE52975F00A84243FF8E6FD7F01120F4E
:100BBC0061E52B6405701CC3E52894027480948055
:100BCC005002800FC3E52894027480948040167DF7
:100BDC007F800DE52975F00A84746125F0F8E6FD37
:100BEC007F02120F61E52B6406701CC3E52894028A
:100BFC00748094805002800FC3E528940274809412
:100C0C008040147DFF800BE52375F00A84243FF8A7
:100C1C00E6FD7F03120F61E52B6407701EC3E52808
:100C2C009402748094805004E5238011C3E52894C9
:100C3C00027480948040167DFF800DE52375F00AC8
:0E0C4C0084743F25F0F8E6FD7F04120F61224C
:100C5A00EF146044146062147003020CEA14700307
:100C6A00020D11147003020D3824056003020D628F
:100C7A007524017DFA7F01120F617DAB7F02120F8D
:100C8A00617D8E7F03120F617DA37F04120F61E5E0
:100C9A0024640160DB020D5D7524017D867F0112EB
:100CAA000F617DAB7F02120F617D887F03120F6196
:100CBA00E524640160E2020D5D7524017DC67F01B1
:100CCA00120F617DC77F02120F617DA37F03120F8E
:100CDA00617DC67F04120F61E524640160DB8073C5
:100CEA007524017D887F01120F617DC77F02120F73
:100CFA00617D887F03120F617DAF7F04120F61E56A
:100D0A0024640160DB804C7524017DCE7F01120FC3
:100D1A00617DFA7F02120F617DC87F03120F617D28
:100D2A00867F04120F61E524640160DB8025752447
:100D3A00017DCE7F01120F617D867F02120F617DD8
:100D4A00C87F03120F617D8C7F04120F61E5246452
:090D5A000160DBE4F52AF5242216
:100F9B00E55014602314602B14603D240370587DBE
:100FAB00867F02120F617DAB7F03120F617D887FFD
:100FBB0004120F61752204227D867F02120F617D60
:100FCB00AB80097D867F02120F617D2B7F03120F91
:100FDB00617D087F04020F617D7F7F01120F617DB0
:100FEB00867F02120F617D2B7F03120F617D087FBD
:080FFB0004120F6175220322AC
:10121900E56B75F00A84243FF8E6FD7F01120F6142
:10122900E56B75F00A84743F25F0F8E6FD7F02123C
:101239000F617D9C7F03120F617DC67F04020F61E0
:1011B600D3E5289402748094804018120F32E551CA
:1011C60075F00A84743F25F0F8E6FD7F04120F617E
:1011D600052622D3E52894027480948050031210C9
:0211E6000322E2
:10117E00D3E5289402748094804003021003D3E5D3
:10118E0028940274809480501E7DCE7F01120F61D0
:10119E007DFA7F02120F617DC87F03120F617D867B
:0811AE007F04120F61052C22E1
:10129F0020952120951EE47F96FEFDFCAB55AA54A8
:1012AF00A953A852C3120217700AE53664017002DF
:0512BF00F536052122B7
:10037000E5211470030204A31470030205591470DC
:100380000302065D14700302065F24046003020684
:100390007E209455E5226403604F20944CE47F96C0
:1003A000FEFDFCAB55AA54A953A852C31202177004
:1003B00038E52264036032E560FD7C00701E7F0337
:1003C000120D63756001AF277E00EF7004F52B807E
:1003D00018EF64014E7012752B04800DED64014C12
:1003E0007007FF120D63E4F560E560640170202082
:1003F00095242095217F96FEFDFCAB55AA54A95368
:10040000A852C3120217700E7F04120D638007E515
:1004100060700312129FE560640170493096030218
:10042000067E30960302067E7F96FEFDFCAB55AA43
:1004300054A953A852C3120217600302067E052B6B
:10044000AF2BFEC3EF9404748094804007E52770BF
:1004500003020650D3EF9407EE64809480500302A9
:10046000067E020627E560600302067E30960302E0
:10047000067E30960302067E7F96FEFDFCAB55AAF3
:1004800054A953A852C3120217600302067EAF2775
:10049000FEEF64017003F52722EF4E600302067E33
:1004A000020650209447E5226403604120943EE414
:1004B0007F96FEFDFCAB55AA54A953A852C3120265
:1004C00017702AE52264036024E560FD7C00700F4C
:1004D0007560017F05120D63E4F527F52B800EEDA5
:1004E00064014C70087F01120D63E4F560E56064FF
:1004F0000170202095242095217F96FEFDFCAB55B0
:10050000AA54A953A852C3120217700E7F04120DE9
:10051000638007E560700312129FE5606401600369
:1005200002067E30960302067E30960302067E7F28
:1005300096FEFDFCAB55AA54A953A852C31202174C
:10054000600302067E052BD3E52B94037480948010
:10055000500302067EE4F52B22209459E522640321
:100560006053209450E47F96FEFDFCAB55AA54A93D
:1005700053A852C3120217703CE52264036036E5AB
:1005800060FD7C00701E7560017F06120D63AF2751
:100590007E00EF7004F52B801CEF64014E70167521
:1005A0002B048011ED64014C700B7F02120D6375FA
:1005B0003501E4F560E56064017020209524209504
:1005C000217F96FEFDFCAB55AA54A953A852C31235
:1005D0000217700E7F04120D638007E5607003122E
:1005E000129FE5606401704530960302067E3096E6
:1005F0000302067E7F96FEFDFCAB55AA54A953A8C4
:1006000052C31202177077052BAF2BFEC3EF940471
:10061000748094804006E52770028034D3EF9407FD
:10062000EE648094804057E4F527F52B22E5607056
:100630004D20964A2096477F96FEFDFCAB55AA5466
:10064000A953A852C31202177034AF27FEEF7004EB
:1006500075270122EF64014E7024F52722801C20AB
:100660009419209416E47F96FEFDFCAB55AA54A97C
:0F06700053A852C31202177002055012129F2294
:10100300E4753014F52FF52EF52D782D74FF1202AB
:101013002FEC4D4E4F603AB2CDE4F53DF53CF53B38
:10102300F53AE47F0AFEFDFCAB3DAA3CA93BA83A96
:10103300D312021750D4E4FAF9F8E53D2401F53D43
:10104300EA353CF53CE9353BF53BE8353AF53A8082
:0B105300D1E4F530F52FF52EF52D222D
:0A131800AE071FEE60030080F7220D
:1012E000C2B77FEE121318D2B77F0F12131830B7A0
:0612F000FD7FF40213185B
:02127600AD07C2
:101278007B01EBD3940874809480501AED1392008C
:10128800EDC313FDC2B70000A20092B77F3C121352
:0612980018D2B70B80DC48
:01129E00222D
:1011E8007C01ECD39408748094805022C2B700002C
:1011F800D2B70000A2B7E433FB7F3C121318EBC44C
:101208003333335480FFEDC3134FFD0C80D4AF0547
:0112180022B3
:101249001212E07FCC1212767F441212761212E04B
:101259007FCC1212767FBE1212761211E8AA0712FB
:0C12690011E8EFFE7C00E42AFFEC3EFEE2
:011275002256
:10114100E47FE87E03FDFCAB5DAA5CA95BA85AC302
:101151001202174027E4F55DF55CF55BF55A1212B2
:10116100498E378F38AC37AD38E4120119E4FBFAF8
:0D1171007980783D12000E1201528F6B2222
:1010B400E4F594F593F591F592F595F596F5B2F579
:1010C400B1F5CAF5C9F5B3F5B41212F6D2A9D2AF87
:1010D4007F01120C5AE52224FE600F146011146083
:1010E40013240370F01211B680EB12117E80E61205
:0910F400105E80E112105E80DC48
:10000E00EC4D6011E8497017ED33EC3304600DE4EC
:10001E00FCFFFEFD22E933E8330470F80201BE1244
:10002E00018958046009E4CC248150062850090245
:10003E0001C82840030201C5C0E0EB4A7044B980F4
:10004E0006D0E0FB0201B4EF4E701CBD8008EBFF42
:10005E00EAFEE9FD80EBE98DF0A4FEE5F00200F783
:10006E00E9CDF9EAFEEBFFEF89F0A4FCE5F0CE89CD
:10007E00F0A42EFFE435F0CD89F0A42DFEE435F08A
:10008E008067EF4E7005BD80D780C3EF8BF0A4ACB8
:10009E00F0EE8BF0A42CFCE435F0F8EF8AF0A42CF3
:1000AE00E5F038FCE433CB8DF0A42CFCE5F03BF806
:1000BE00EE8AF0A42CFCE5F038F8E433CF89F0A4F6
:1000CE002CFCE5F038CF3400CE89F0A42FFFE5F0FC
:1000DE003EFEE433C98DF0A42EFEE5F039CD8AF054
:1000EE00A42FFFE5F03EFEE43DFD33D0E0FB5007CC
:1000FE000BBB000F0201C8EC2CFCEF33FFEE33FEFE
:06010E00ED33FD0201A02B
:1001140075F020800E75F010800575F0087D007E66
:10012400007F003392D530D503120209EC3340101E
:10013400EF33FFEE33FEED33FDEC33FCD5F0ED226F
:0E014400E5F0247EA2D513CC92E7CDCEFF22AB
:10015200EDD2E7CD33EC3392D524814006E4FFFEA5
:10016200FDFC22FCE4CFCECDCC24E0501174FF8004
:10017200EDC3CC13CCCD13CDCE13CECF13CF0470A1
:07018200F030D5DE02020996
:10018900E9D2E7C933E833F892D5EDD2E7CD33ECBC
:0701990033FC5002B2D52235
:1001A000EC30E7100FBF000C0EBE00080DBD0004C0
:1001B0000BEB6014A2D5EB13FCED92E7FD2274FF6C
:1001C000FCFDFEFF22E480F8A2D574FF13FC7D80C5
:0301D000E480EFD9
:100EB2000210B4E493A3F8E493A34003F68001F292
:100EC20008DFF48029E493A3F85407240CC8C33341
:100ED200C4540F4420C8834004F456800146F6DF10
:100EE200E4800B0102040810204080900E14E47E7E
:100EF200019360BCA3FF543F30E509541FFEE49305
:100F0200A360010ECF54C025E060A840B8E493A3CB
:100F1200FAE493A3F8E493A3C8C582C8CAC583CAF6
:100F2200F0A3C8C582C8CAC583CADFE9DEE780BEAE
:010EA500004C
:1001D300C2D5EC30E709B2D5E4C39DFDE49CFCEE47
:1001E30030E715B2D5E4C39FFFE49EFE12024DC370
:1001F300E49DFDE49CFC800312024D30D507C3E46B
:060203009FFFE49EFE22B5
:1010FD00C2D5E830E70FB2D5E4C39BFBE49AFAE41E
:10110D0099F9E498F8EC30E717B2D51211331202C1
:10111D00DEE4C39BFBE49AFAE499F9E498F88003C2
:10112D001202DE30D50DE4C39FFFE49EFEE49DFD6B
:04113D00E49CFC2210
:0E020900C3E49FFFE49EFEE49DFDE49CFC2206
:10021700EB9FF5F0EA9E42F0E99D42F0EC6480C85E
:0602270064809845F022FE
:10022D007401FF3395E0FEFDFC080808E6CF2FF6BC
:10023D0018E6CE3EF618E6CD3DF618E6CC3CF62295
:10024D00BC000BBE0029EF8DF084FFADF022E4CC95
:10025D00F875F008EF2FFFEE33FEEC33FCEE9DEC5E
:10026D00984005FCEE9DFE0FD5F0E9E4CEFD22EDA4
:10027D00F8F5F0EE8420D21CFEADF075F008EF2FEE
:10028D00FFED33FD4007985006D5F0F222C398FDDF
:05029D000FD5F0EA227C
:1002A20075F008758200EF2FFFEE33FECD33CDCC13
:1002B20033CCC58233C5829BED9AEC99E582984096
:1002C2000CF582EE9BFEED9AFDEC99FC0FD5F0D673
:1002D200E4CEFBE4CDFAE4CCF9A88222B800C1B99D
:1002E2000059BA002DEC8BF084CFCECDFCE5F0CBDB
:1002F200F97818EF2FFFEE33FEED33FDEC33FCEB14
:1003020033FB10D703994004EB99FB0FD8E5E4F9CE
:10031200FA227818EF2FFFEE33FEED33FDEC33FCBB
:10032200C933C910D7059BE99A4007EC9BFCE99AAF
:10033200F90FD8E0E4C9FAE4CCFB2275F010EF2FF4
:10034200FFEE33FEED33FDCC33CCC833C810D707F4
:100352009BEC9AE899400AED9BFDEC9AFCE899F82F
:0E0362000FD5F0DAE4CDFBE4CCFAE4C8F922C2
:00000001FF
